[
  {
    "block_trace": {
      "trie_pre_images": {
        "combined": {
          "compact": "0x000397e4ae58e8d997dd2b19ed09ad9a66d1c0fd304d074e4a7bfb3f1fcc512a3e630306d47616df479b46b302f2a8b7ed03cb537f6cf7c551c15421c65db4e00fa97f03fdaec2ac12a87374ef2033940080fd58e3799c8c327a844caf720caea82acfde05582003d2dbe83a6ba7fd75737c8d7453d984e7938ba7ae113d3da2ad7433061157b0084101055820039c0a91ba30d346a55890b1b07287d8aae35baa8c4068ef8f1de66084aca750084101055820032dee2834b372effea65d7c74ab9f3ac60ef271e846721aa8759a346a3b55400c182f4c033b2e3c9c776935e1af0d6403af95346d9127f1a950d72aec9bdf168c599460c2b5b6c2eb2377df2471826d860605582003a8254fae77737f53f00a32a8c0dfc5f287e2e95193e94ba27168dade6b049007011bffffffffffffffff0219420303d2e57f615a47508c6e60935353428b9fc1cc75677a3eb8f5f73d61dd0aaff5f5055820021d99c6bec3aecbec962be74b25448511983b013c0876f6f4e6029773dfad61084101034d78166b48044fdc28ed22d2fd39c8df6f8aaa04cb71d3a17286856f6893ff83036c029a231254fadb724d63be769f75eedd66362df034a3e663252b49d062a66603556a482068355939c95a3412bdb21213a301483edb1b64402fb66ac9f3583599055820022a47fc6863b89a6b51890ef3c1550d560886c027141d2058ba1e2d4c66d99a031bffffffffffffffff05582002b3096c912adc7674ca92b68ddb3b0494e9b988fbef1bed7938e8fac4c2df7a0841010458613373fffffffffffffffffffffffffffffffffffffffe14604d57602036146024575f5ffd5b5f35801560495762001fff810690815414603c575f5ffd5b62001fff01545f5260205ff35b5f5ffd5b62001fff42064281555f359062001fff0155000391dd5a8b0d172937a3e41c27fbce8bd4df477e5d1695d72256ac9f9574ce5ce60397f8a7d81884ee8efca12677311276e404c3c67c9388843af04d7c9d08129abb0322cd62af35f370cc65d96067572c3595f7bc3d7a9b6c0a24b7c46f662fe291f903bbe07aa83b875f41ac8024f0ebbc5896aaf947c8ab7ccdab25ba9bce875bf29b03689bed74e0bf6cd4f15eab1509c957ed444b5cb7420acfe95781442f35d38068038a2a0294e9a77d8bd1a1dc360852653f54f34dd887704e0c94028e77769c76fe005820024c7b56e870080046e1df9b9ca3aa3b7b80a26d9b7b6db380adc6bf02bdb9585820d1475aa1ccf9e894f67d73c1a62b41d25fb6290ed4e1744d810fc579bdd60a00005820026c30b99372f1b6d20e4ee2ff8f42e6a1cf0b05350cef638786b35e5d80e92b58203c08274e2d7dee842b0d8b14df937921e22144a1097e99a4a752477ac66556a300582002c9c3ff82b6deee5511a3ff336a04ee8aeb056fe1d5ad1f88afbd3b78364caf5820b7b33b03c141453fb2722a6886f10c3f8575f3f8143e9c7f0ebbaaacf55e5c6e0351f3f9a60d140d1416eace6a847d1a66937f759a946a73999742649165a5d75e00582002dba89441a1d91ff7ed2f275bf0eb8e6d91c649fe74e526c62b7982ce20239c44669fb03503abef276c8878f9d0f6fe339ca0ff417f6b1cded08daccb69502a5aa7f124d839021966b0039946716754ae812f7abe99b6cf4a682f197e800f59610f94b3109f67cf075bd803f0bc14bda4697f1f3c0b1a64d3a2cbda019a521970ea85f942d44486c8f64f400058200294c962092c74618043853ab43319654dc623ed124d6ef251dd1ce06b7ab56244669fb1cd0363f6f69af2009fbdbc7307a6270d61d0df59ba591add237f99e5dfe8b02d202300582002de6ef79044c125ad09722792c8fed996c33498a53129645b31259cafc46be644669fb3290360e344f05260be5daf89def06f6686287edcb0de1d7e3505fa55bf90a36546200345187e6e205b647c516f5b897078db0cc82b1efa28e90e9c53db998019cac6f003c0aa96723e4348cc11de7ff59e82ddcd8e4fb6b2c313d90ab76a75044e6ce170005820023b3ccdddcaa107bc370e777710892e564cc1fbbb4a7414d678685bd081cd9b58204a95396b7625b3def548067275d154b549c300929799b529c561082707931bd30219a4b4030437bfacdc78b7130090d2d51c94f9b5e1f0ef6715a6acf956553e56db2ead8003a4c0dce83ecb99a8aa7998981d0d6cea09954491154c6d199791f6a47afb8d27030c76c2e6f1ab1d707cbfc9bc3e011885b93250d81719fcfce585959677cd6c950352887dc1ea43887dce432e0648d21a2806ccc98752fa6979a221f371141ff3040348db1dece36841db50b6911df64dedd03ea16f281bc0479d9a7aecc1b315b3b20357a86eb64d7095994f5c5b9668e9818acfd31a2db6e19339cb6200e5644480d003d843d4d91b800db6ec99b77b8ec1d5dd714d2f5b90671f7f25aba9bc04deafca0219ffff05582002d65eaa92c6bc4c13a5ec45527f0c18ea8932588728769ec7aecfe6d9f32e420701186105582002401b4e97e67c4a6d8095979b4c1ecb9eaf5726fc8a12798975a7653e98087208410105582002c8bb92227ba91a2657f29c5498f5c5b07ae36369c8d9283444f477930c79be0841010391d9c76bfbc066e84f0b415c737ab8c477498701d920526db41690050cfade9905582002a5ac70a18399817ccbe8bd4d9c78115136cc61699d51af87608af520226c32084101055820029bd268aedc8dbb36db0a4664e17b83abcfd87e404901eee7bd5704a95064ee08410105582002a06a67e7fee9c938155c50e6cec9da70b66679e777da6f02149c6674cd910508410103d9240a9d2d5851d05a97ff3305334dfdb0101e1e321fc279d2bb3cad6afa8fc803c2a04eea21bba383c9fd042eff6d659159a4fec7a15f2ef85327b08ab16c53080605582002d7bcbb065e272d185755b3a7c68e6db393865f253b19acd90bcfe5fb894cec07011bffffffffffffffff0219fffd035e9b78a0d1b6d6b90a29c69a5eba99b2beefb587453643a0c47053caa7c2ed9703cd59d7f99bc34ffe1962b1e979dbe1d9ebcfb17dc7993417563b14b204a3d3140394f4bbbb7234d5d84daff7196be134766d89f6bb89b989c5ab23dd114181f6a803ba580353c520d4097c52bd481df16da654869fb0e37dfd91af6f42bf33f1ee310558200280c7b7ae81a58eb98d9c78de4a1fd7fd9535fc953ed2be602daaa41767312a08410103240fe04f07c1e7c842151629719b748169dbe9944bacfa4fa148a8e8f2adcc5605582002d423ba59df7075b27e5d573ad8399ac6ab8a7541efb9a1e646a67244301fed08410103d1bac769815d4254a62cf5d5a7bcbe4bd747818eb0201e27df966a0c4efbb1620458b57c0c48c9bdf267e6096a3ba7ca8485ae67bb2bf894fe72f36e3cf1361d5f600c527f3af54fa5d182e6ad7f520e511f6c3e2b8c68059b6bbd41fbabd9831f79217e13602c527f19cde05b61626300000000000000000000000000000000000000000000000000604c526000606c526000608c52600060ac526b01000000000000000000000060cc5260005b6001018060c01b60d052600160e0536040601060d5600c6002611000fa5061013c5a11630000008a57000605582002d46e5232e8766e8513b4363cfd45c33ba00364225940621ea73626eb03954a070118b5055820024be2322eb50cfea1051978c284526cd5a6e28caca681855736a5d3c31d9bad0841010373aaf5a5388bebf4f19f83fe0c975e091c482cfa95437f14cb80311107b5824903a770c4ddb20db2bd6b630c27589e7ac442f7e87ffa2f0c34c15518eac1338317055820029114e8c0b1e858bf7322eec122e3fc4b0988f146620def0fde9dbd322f3a03084101055820029e4ee172469cfda38a7457ef192b6efb169fedb73943e4c987d4eb910189d40841010219bf5f03e553eb2077a2442b72c7a1f27cd4c2c14f9d91edd7d14db5d8cdbdb3a565527f037b8baebeae76e58eb1cfd4f457d855a21e70cc8c5b61ac97bdf2cb3e97b603e7039c5beb83f525dd64f903357fd7aa0fe83836a3bbc3b6194ca37f1e2cae23ea9b03ea2884e57644eeae0c9de22966375e9a2d71fe35592486cd3e515a6e56c65896033b4de4d33dca787a9ef3d5c7693db86c9161ddad0b00ae1d9e7a34dd8df719df038130db76fceec9aecd9f09fae5ee85e1614ce6c98f49150d670b6a4067a016c30341aae5997a7a85a62312e05d7d9e5166d892c7afd4234580b47863561170707103f1a60e8881cfcb2dc50ba58c326ccc9a6da8287c1e5f56d2017563be700058c403616362468a3391221e3782da42e2d6fb8ea41da6bdd2d679e20bf0375c061586055820022688a8f926c816ca1e079067caba944f158e764817b83fc43594370ca9cf6208410103364b10f048e1d9b2d4e971bdd35d0a89abab33a99dea3cd583ac4d5bca0d1b4e03075fdce1681761393fc5cb57f1bd07d938374462af409cfcd35036595b216c53055820020d7fc05c32bbba16518f9f2936fd75140d5c99b95ae536205ba9caf18683780841010332676b26616eef22fcd4b01fa7ac1b68c6b7887385e16a785d37fbc68da8dfd20605582002fb970dfb4191dd4bb1ee946236db64e90c4dfb8c4d0bda3e04e47f6ce7d3ce07011bffffffffffffffff03ebe51b14fea6aaa5c097f2506874e990813c36cd31399ee3d72666de2dde3fcc03e82249a96567ee2e62a98c1c6dca147cc4f1ed0661a761eef3ed8eca6489be44055820026e6fcaefc39f05e5912014093f38926987bb7b125e51b49ddfb49b03e36c5008410102197f2c036a2b50671c3f299bfd4b6cf43d6e5d6aafd4d3677c38a8af52a0cd7680de2b94035740575999fde2ddd421a9f5907dfc4be5fc3f5f96d65240ae3b3b596d38465f05582002b693085beb21b0878c7e5fab7519ce0d6105354cf6744dbfb73e3745e929e4084101055820027f470df15c88b9beaf3fad72890a64f8851d01ece546b0c9fb3bdf92041a35084101055820029cb4b751333c144710961e20611eb00c783b77e8cb532c64307202fb109699084c033b2e3c9fd0803ce8000000035f4ca08c32e4a3997d0e94d8946e3d361ec5d0225d9cd85c6de8d572bb0a99c903faecf459527318d12fee2db8d85c54fc244d0207ba336a01e397593b801ae61f055820039bbcf08818ec3329e5769dff3fbdad66e6312a961acb32c1b203edf70aeba0084101031c13664b9096979e0a6a58919940b248687992af952308581eff9d0e8c14119a0219400805582002facf5483fdda2fc98d08bcce1a68d5d308d3ad88ee21b50004fd694ba6f805084101055820026a58207750197f48cb90864096850259845c2c8e90c74433325c0b144bf8bb08410105582002fa0eae268038cfa984647a1d0635beb86eda9fb7b500688f3189520cfa9ee50841010219fb610219ffff"
        }
      },
      "code_db": null,
      "txn_info": [
        {
          "traces": {
            "0x8943545177806ed17b9f23f0a21ee5948ecaa776": {
              "balance": "0x33b2e3c9c7753f468c33714",
              "nonce": "0x30"
            },
            "0x0000000000000000000000000000000000000002": {},
            "0xc5fc7ce1d859e6604f1e8e57ba0f4a92858850bc": {
              "code_usage": {
                "read": "0x2c1d081e6b8f8c183e40c89a4f9a81a2f3775f9c5cd2245c60023529dd2d2b7f"
              }
            }
          },
          "meta": {
            "byte_code": "0xf8682f843ba850a484017d784094c5fc7ce1d859e6604f1e8e57ba0f4a92858850bc80808360306ca05e26ca3f53fd5f4711f577e5eec500cd2eabc719dbd0f5e2c895d1dc7d4421cfa03735bea693a12897fb373c932a3d4bc283a1c655e6cf2a0f05ae6fd168e998c8",
            "new_txn_trie_node_byte": "0xf8682f843ba850a484017d784094c5fc7ce1d859e6604f1e8e57ba0f4a92858850bc80808360306ca05e26ca3f53fd5f4711f577e5eec500cd2eabc719dbd0f5e2c895d1dc7d4421cfa03735bea693a12897fb373c932a3d4bc283a1c655e6cf2a0f05ae6fd168e998c8",
            "new_receipt_trie_node_byte": "0xf9010a0184017d7806b9010000000000000000000000000000000000000000000000000000000000000000000000000000000000000000000000000000000000000000000000000000000000000000000000000000000000000000000000000000000000000000000000000000000000000000000000000000000000000000000000000000000000000000000000000000000000000000000000000000000000000000000000000000000000000000000000000000000000000000000000000000000000000000000000000000000000000000000000000000000000000000000000000000000000000000000000000000000000000000000000000000000000000000000000000000000000c0",
            "gas_used": 24999942
          }
        }
      ]
    },
    "other_data": {
      "b_data": {
        "b_meta": {
          "block_beneficiary": "0x8943545177806ed17b9f23f0a21ee5948ecaa776",
          "block_timestamp": "0x669fb359",
          "block_number": "0x55",
          "block_difficulty": "0x0",
          "block_random": "0xe81adce36d2b7a8f44aece4d7ab137a31729ba19b5eecb9b63667f720a69395b",
          "block_gaslimit": "0x19e77a0",
          "block_chain_id": "0x301824",
          "block_base_fee": "0xe43b8",
          "block_gas_used": "0x17d7806",
          "block_blob_gas_used": "0x0",
          "block_excess_blob_gas": "0x0",
          "parent_beacon_block_root": "0xd404247cc97d08065846b856cbb1e9c70940058eb98142e2f916efaf3816df49",
          "block_bloom": [
            "0x0",
            "0x0",
            "0x0",
            "0x0",
            "0x0",
            "0x0",
            "0x0",
            "0x0"
          ]
        },
        "b_hashes": {
          "prev_hashes": [
            "0x0000000000000000000000000000000000000000000000000000000000000000",
            "0x0000000000000000000000000000000000000000000000000000000000000000",
            "0x0000000000000000000000000000000000000000000000000000000000000000",
            "0x0000000000000000000000000000000000000000000000000000000000000000",
            "0x0000000000000000000000000000000000000000000000000000000000000000",
            "0x0000000000000000000000000000000000000000000000000000000000000000",
            "0x0000000000000000000000000000000000000000000000000000000000000000",
            "0x0000000000000000000000000000000000000000000000000000000000000000",
            "0x0000000000000000000000000000000000000000000000000000000000000000",
            "0x0000000000000000000000000000000000000000000000000000000000000000",
            "0x0000000000000000000000000000000000000000000000000000000000000000",
            "0x0000000000000000000000000000000000000000000000000000000000000000",
            "0x0000000000000000000000000000000000000000000000000000000000000000",
            "0x0000000000000000000000000000000000000000000000000000000000000000",
            "0x0000000000000000000000000000000000000000000000000000000000000000",
            "0x0000000000000000000000000000000000000000000000000000000000000000",
            "0x0000000000000000000000000000000000000000000000000000000000000000",
            "0x0000000000000000000000000000000000000000000000000000000000000000",
            "0x0000000000000000000000000000000000000000000000000000000000000000",
            "0x0000000000000000000000000000000000000000000000000000000000000000",
            "0x0000000000000000000000000000000000000000000000000000000000000000",
            "0x0000000000000000000000000000000000000000000000000000000000000000",
            "0x0000000000000000000000000000000000000000000000000000000000000000",
            "0x0000000000000000000000000000000000000000000000000000000000000000",
            "0x0000000000000000000000000000000000000000000000000000000000000000",
            "0x0000000000000000000000000000000000000000000000000000000000000000",
            "0x0000000000000000000000000000000000000000000000000000000000000000",
            "0x0000000000000000000000000000000000000000000000000000000000000000",
            "0x0000000000000000000000000000000000000000000000000000000000000000",
            "0x0000000000000000000000000000000000000000000000000000000000000000",
            "0x0000000000000000000000000000000000000000000000000000000000000000",
            "0x0000000000000000000000000000000000000000000000000000000000000000",
            "0x0000000000000000000000000000000000000000000000000000000000000000",
            "0x0000000000000000000000000000000000000000000000000000000000000000",
            "0x0000000000000000000000000000000000000000000000000000000000000000",
            "0x0000000000000000000000000000000000000000000000000000000000000000",
            "0x0000000000000000000000000000000000000000000000000000000000000000",
            "0x0000000000000000000000000000000000000000000000000000000000000000",
            "0x0000000000000000000000000000000000000000000000000000000000000000",
            "0x0000000000000000000000000000000000000000000000000000000000000000",
            "0x0000000000000000000000000000000000000000000000000000000000000000",
            "0x0000000000000000000000000000000000000000000000000000000000000000",
            "0x0000000000000000000000000000000000000000000000000000000000000000",
            "0x0000000000000000000000000000000000000000000000000000000000000000",
            "0x0000000000000000000000000000000000000000000000000000000000000000",
            "0x0000000000000000000000000000000000000000000000000000000000000000",
            "0x0000000000000000000000000000000000000000000000000000000000000000",
            "0x0000000000000000000000000000000000000000000000000000000000000000",
            "0x0000000000000000000000000000000000000000000000000000000000000000",
            "0x0000000000000000000000000000000000000000000000000000000000000000",
            "0x0000000000000000000000000000000000000000000000000000000000000000",
            "0x0000000000000000000000000000000000000000000000000000000000000000",
            "0x0000000000000000000000000000000000000000000000000000000000000000",
            "0x0000000000000000000000000000000000000000000000000000000000000000",
            "0x0000000000000000000000000000000000000000000000000000000000000000",
            "0x0000000000000000000000000000000000000000000000000000000000000000",
            "0x0000000000000000000000000000000000000000000000000000000000000000",
            "0x0000000000000000000000000000000000000000000000000000000000000000",
            "0x0000000000000000000000000000000000000000000000000000000000000000",
            "0x0000000000000000000000000000000000000000000000000000000000000000",
            "0x0000000000000000000000000000000000000000000000000000000000000000",
            "0x0000000000000000000000000000000000000000000000000000000000000000",
            "0x0000000000000000000000000000000000000000000000000000000000000000",
            "0x0000000000000000000000000000000000000000000000000000000000000000",
            "0x0000000000000000000000000000000000000000000000000000000000000000",
            "0x0000000000000000000000000000000000000000000000000000000000000000",
            "0x0000000000000000000000000000000000000000000000000000000000000000",
            "0x0000000000000000000000000000000000000000000000000000000000000000",
            "0x0000000000000000000000000000000000000000000000000000000000000000",
            "0x0000000000000000000000000000000000000000000000000000000000000000",
            "0x0000000000000000000000000000000000000000000000000000000000000000",
            "0x0000000000000000000000000000000000000000000000000000000000000000",
            "0x0000000000000000000000000000000000000000000000000000000000000000",
            "0x0000000000000000000000000000000000000000000000000000000000000000",
            "0x0000000000000000000000000000000000000000000000000000000000000000",
            "0x0000000000000000000000000000000000000000000000000000000000000000",
            "0x0000000000000000000000000000000000000000000000000000000000000000",
            "0x0000000000000000000000000000000000000000000000000000000000000000",
            "0x0000000000000000000000000000000000000000000000000000000000000000",
            "0x0000000000000000000000000000000000000000000000000000000000000000",
            "0x0000000000000000000000000000000000000000000000000000000000000000",
            "0x0000000000000000000000000000000000000000000000000000000000000000",
            "0x0000000000000000000000000000000000000000000000000000000000000000",
            "0x0000000000000000000000000000000000000000000000000000000000000000",
            "0x0000000000000000000000000000000000000000000000000000000000000000",
            "0x0000000000000000000000000000000000000000000000000000000000000000",
            "0x0000000000000000000000000000000000000000000000000000000000000000",
            "0x0000000000000000000000000000000000000000000000000000000000000000",
            "0x0000000000000000000000000000000000000000000000000000000000000000",
            "0x0000000000000000000000000000000000000000000000000000000000000000",
            "0x0000000000000000000000000000000000000000000000000000000000000000",
            "0x0000000000000000000000000000000000000000000000000000000000000000",
            "0x0000000000000000000000000000000000000000000000000000000000000000",
            "0x0000000000000000000000000000000000000000000000000000000000000000",
            "0x0000000000000000000000000000000000000000000000000000000000000000",
            "0x0000000000000000000000000000000000000000000000000000000000000000",
            "0x0000000000000000000000000000000000000000000000000000000000000000",
            "0x0000000000000000000000000000000000000000000000000000000000000000",
            "0x0000000000000000000000000000000000000000000000000000000000000000",
            "0x0000000000000000000000000000000000000000000000000000000000000000",
            "0x0000000000000000000000000000000000000000000000000000000000000000",
            "0x0000000000000000000000000000000000000000000000000000000000000000",
            "0x0000000000000000000000000000000000000000000000000000000000000000",
            "0x0000000000000000000000000000000000000000000000000000000000000000",
            "0x0000000000000000000000000000000000000000000000000000000000000000",
            "0x0000000000000000000000000000000000000000000000000000000000000000",
            "0x0000000000000000000000000000000000000000000000000000000000000000",
            "0x0000000000000000000000000000000000000000000000000000000000000000",
            "0x0000000000000000000000000000000000000000000000000000000000000000",
            "0x0000000000000000000000000000000000000000000000000000000000000000",
            "0x0000000000000000000000000000000000000000000000000000000000000000",
            "0x0000000000000000000000000000000000000000000000000000000000000000",
            "0x0000000000000000000000000000000000000000000000000000000000000000",
            "0x0000000000000000000000000000000000000000000000000000000000000000",
            "0x0000000000000000000000000000000000000000000000000000000000000000",
            "0x0000000000000000000000000000000000000000000000000000000000000000",
            "0x0000000000000000000000000000000000000000000000000000000000000000",
            "0x0000000000000000000000000000000000000000000000000000000000000000",
            "0x0000000000000000000000000000000000000000000000000000000000000000",
            "0x0000000000000000000000000000000000000000000000000000000000000000",
            "0x0000000000000000000000000000000000000000000000000000000000000000",
            "0x0000000000000000000000000000000000000000000000000000000000000000",
            "0x0000000000000000000000000000000000000000000000000000000000000000",
            "0x0000000000000000000000000000000000000000000000000000000000000000",
            "0x0000000000000000000000000000000000000000000000000000000000000000",
            "0x0000000000000000000000000000000000000000000000000000000000000000",
            "0x0000000000000000000000000000000000000000000000000000000000000000",
            "0x0000000000000000000000000000000000000000000000000000000000000000",
            "0x0000000000000000000000000000000000000000000000000000000000000000",
            "0x0000000000000000000000000000000000000000000000000000000000000000",
            "0x0000000000000000000000000000000000000000000000000000000000000000",
            "0x0000000000000000000000000000000000000000000000000000000000000000",
            "0x0000000000000000000000000000000000000000000000000000000000000000",
            "0x0000000000000000000000000000000000000000000000000000000000000000",
            "0x0000000000000000000000000000000000000000000000000000000000000000",
            "0x0000000000000000000000000000000000000000000000000000000000000000",
            "0x0000000000000000000000000000000000000000000000000000000000000000",
            "0x0000000000000000000000000000000000000000000000000000000000000000",
            "0x0000000000000000000000000000000000000000000000000000000000000000",
            "0x0000000000000000000000000000000000000000000000000000000000000000",
            "0x0000000000000000000000000000000000000000000000000000000000000000",
            "0x0000000000000000000000000000000000000000000000000000000000000000",
            "0x0000000000000000000000000000000000000000000000000000000000000000",
            "0x0000000000000000000000000000000000000000000000000000000000000000",
            "0x0000000000000000000000000000000000000000000000000000000000000000",
            "0x0000000000000000000000000000000000000000000000000000000000000000",
            "0x0000000000000000000000000000000000000000000000000000000000000000",
            "0x0000000000000000000000000000000000000000000000000000000000000000",
            "0x0000000000000000000000000000000000000000000000000000000000000000",
            "0x0000000000000000000000000000000000000000000000000000000000000000",
            "0x0000000000000000000000000000000000000000000000000000000000000000",
            "0x0000000000000000000000000000000000000000000000000000000000000000",
            "0x0000000000000000000000000000000000000000000000000000000000000000",
            "0x0000000000000000000000000000000000000000000000000000000000000000",
            "0x0000000000000000000000000000000000000000000000000000000000000000",
            "0x0000000000000000000000000000000000000000000000000000000000000000",
            "0x0000000000000000000000000000000000000000000000000000000000000000",
            "0x0000000000000000000000000000000000000000000000000000000000000000",
            "0x0000000000000000000000000000000000000000000000000000000000000000",
            "0x0000000000000000000000000000000000000000000000000000000000000000",
            "0x0000000000000000000000000000000000000000000000000000000000000000",
            "0x0000000000000000000000000000000000000000000000000000000000000000",
            "0x0000000000000000000000000000000000000000000000000000000000000000",
            "0x0000000000000000000000000000000000000000000000000000000000000000",
            "0x0000000000000000000000000000000000000000000000000000000000000000",
            "0x0000000000000000000000000000000000000000000000000000000000000000",
            "0x0000000000000000000000000000000000000000000000000000000000000000",
            "0x0000000000000000000000000000000000000000000000000000000000000000",
            "0x0000000000000000000000000000000000000000000000000000000000000000",
            "0x0000000000000000000000000000000000000000000000000000000000000000",
            "0x0000000000000000000000000000000000000000000000000000000000000000",
            "0xc7648da72a852d5208c8f4ca786d7195ee981410aa894197377cb0dc5cf27235",
            "0x5c037c8fb5991dc5ec14b07d3e4ca94305c4ac76733f806a599d182168eee85a",
            "0xe76e522e7cc481dad6b117bc3064cf73bff5d1519798464b2da0393724cd4b28",
            "0x75c69b5e4e95a0da691bab40ef47e1fd09e56308dfa8eaebf4aa7769a5e11858",
            "0xa772a1d4cf9bddc89aecf860098730edf3393c7e0369daf4e2f1e927a5adfbb7",
            "0x57a9287693e6d764fa4fd2cc1692709f4d08422409a731279ad1d27c58dc3815",
            "0xdbbfa7591b0690f9864f1970202fdad3dedd46103d09afc4dbea8c82e9688a57",
            "0x0517b79beaa35c29979f40bfb73fb8ddb23ebb2b8f8c92fa218f83295fe84322",
            "0x4ffe8da7a5014dda7c9ef155e9fa0ef25bbb95817f77026aa434922000f23c4f",
            "0x04dd21aaa485e89d408762cc8336ce0f46a138a46fcdaac7d874d84baea8a6f3",
            "0x14b35333b32c0f737491f913a4e69dbcb3f98dd13d88297696ad2c614bb12a34",
            "0x25c89e4581e4fce1b24934f44160584223966f41438c3445f74a8bdd40dc4e73",
            "0x6ea10cbf3db9a0855693c0eec27bb55aab0a15e55bacbee8e0a6bc5c767db368",
            "0xc0a02c2502d10a133852393559f2b85ec1598879cea1b70ff02920458c2bf305",
            "0xe78e2e379eb7090e38a5db2e28c6b877859651c0c299273038b805cfa3e5801f",
            "0x7c2e738e8f8f27700f1eabacbbf72eb5e42af08562e0f20219235e1b28560ee9",
            "0x960f8939106fcb0f3684228678bbcd888e345ee5260a1953dc4e54cf3bfea33a",
            "0x667804d9a36278912b1b01398b39c21281970117e5c8a6bd2de2a4047b4f3157",
            "0xabf709230a388c4760e49f57b5fd9390521b87152c9106a265736bc843d93106",
            "0x77f2a2dbf1d0c9c8c4c1070590a2aae927f1aaa662ad72fa67a64227b0797b18",
            "0xfdbb17b900bc5ad808c5a5691d0e4ad4074ba5925a7b1dee82b07c0781d22a88",
            "0x6879c3c7e12f3b7dc2bf98e39be84af5c7df42b80e4a158d32cd3fd7c0cc5359",
            "0xa0fd70d2132a5d4e6c4564e887a5f67a4932b487f05fd36d7e2ee6c8eafa6b23",
            "0x021637ed12ea706c4beb1f8ca461eed76e1df79a6492b968101f980260e58073",
            "0x4ee4bda538b0d8cb39bae743bcf1dbf715cd893ccd9d7e0924f5342879f51d81",
            "0x36cd7bbd4b926cab3ba71b2a96e6e508e92607563a86f9570b0f54649db30437",
            "0x200b33ca2060c7eb07bc8da5ce657118b99d42077fa62051ad59c47761f60067",
            "0x0028488c23e472d519fb17106ebbb50c68b1b209020ce011bdc16072747ccd58",
            "0x08a69a18d417ddfaaea213488be4a1eb73c54756b2c132cf83092252c38a206f",
            "0x79ece6872efdc1dd77619d58328189f77121bfbe6a573abca23e8848b8dc7117",
            "0xe32e7ff08311710164c135ca9273d21a11dc96892a0dd1911246b95cdcb9356d",
            "0xc9aca09cc2deb6a2967d62bbd45d3a234335e13c5f1e6ae4fbd5beb06fb84004",
            "0x6bb1998c41790e167b06e098af140d12a87617faf73dfdb0496321f3abb72da4",
            "0xa990c380ce4fa69d3f455862afc73e68e45be6522b3bc9a337826e07a468ecc9",
            "0x2714543900b7b32bae1e87e02157ba3a5814ba4c215d11822cfdcd27ce64d387",
            "0xea1c9a2ef93062b7ab8ea08a1ba804570f337bb112134d35ccaa4287e78961d9",
            "0xcee5911658b90d6c91cdd40b2742162fdd4ffe33e22290dd368082effd0e8094",
            "0x3006409f8ece156faaf048483a59b2efeebcc4cf02b54fe97c25688157048fe6",
            "0x50d101ecaad0849059b4c0799e523649a2513d4b6f897da5d929251e3dc6bfc1",
            "0x2e0f02b54fe39dc175103427c0ab911bc0bcc6a3e9c1fb3a1e7a260ffe1c6aca",
            "0xbacf99b29b0ef16e29a6334cd0045847ffac1920db995a537cac78c35f9be4ed",
            "0x4302f7eda61f2c1db148a3828d5d386cde46fb28f958c7f6824ce9791dc5ddda",
            "0xa156c3e69dd24b389e79fb96b2269398e6f7457fb33fa407c572bcc8c1c9d899",
            "0xbc617a0d0825002a660bf59ef6ab3692f2e551c8ceb601f497178c0e4cdf6d61",
            "0xaa45dfdac4a28edbc53f12681fd8e5cfd91f63d2193c665cc4499ac7ffef6a67",
            "0xceddca0a956dd95ce36b30b609d913d5809e55030df7832d1d0c7959f7e00ea0",
            "0xeb70aee5d7a82c7d5226ee2d513550e2871c87ceed4cc172f5c008646150bd07",
            "0x745ee8ef321a76f4c845ff879b26b2c21355d7ff68bcf1f7b97940d5b85bacbd",
            "0xd0394375ef8f1c6b78fcc358a1d13d5bf5cb8660fd4dce9220fd10e6cd043618",
            "0x693b1d83d62f0437e6b75d3176dc8fa5a8d46ca04bab0ea756a2e8ee9d0416ea",
            "0xe427994928d691dcaff5f9457c4c0df0c046a7f60ad084debac05cee4f12b9f7",
            "0xd6d28c098521f74b08e9c7c39d7ed98f61e5994e16c94139c83ea5a8387fbef9",
            "0x709abb1057ade132e7fe719ada26c4b73a1b226314957cf05f44dfab63f6d1d2",
            "0x91f37d3a8c09d3f25673f06165614d132b93ce22aafad7b752ae3763e9efbe95",
            "0x8342cc94f4c421e86afdefb2ceb6476907500700788f84465ce7ed9c932d789a",
            "0x898a7e4e4e3ec5ea10904626e1cbbf3f289c6a8acff266c385cf4a4fb5cba9c2",
            "0x95fe0de7abf3e4a0c26b5721fbf22664f479691409ff0cc9ef852ce09a14d248",
            "0xb15eea7f662b6457ee49068bd23a2c6f412ca843311219e0352a67575a78544c",
            "0xfce14577ef5700dad2dd4da04b50dde6906dcce3d34b1b3fe95d322e0728451f",
            "0x131f97265031bfb99a0584964f30c8708f4f51ded637abfbb11f5edbdb19bc83",
            "0x571373df5d15544d05f5b7c1cded4b2a4f87c89a2f6a237a2b4767589e395d26",
            "0xaf3facb319aef1dc28b04485d883e86909424324280d6f5362f40ed3aba94296",
            "0xa13c0a978e3df284d1afb8530a01f62b8cae9a4b57170a02454dc76daab8e31d",
            "0x3446847a416bb50ef9e9fde0e0d25581ed37da3c1f5ac8d161c10f44837a0d58",
            "0xd12b944dddba1e0260610362be00cb55e0218094861d473d4bd79e6fa8a67804",
            "0x57fff1427b3f189dac3db0df30e1c30396823bc597b7d04209d27fa10e1eefdd",
            "0xbd7b890b871aa5ef772c4af3b04c6d73056efc21df6bf02f878da424bfc032d8",
            "0x58fd7a7410c3ab1e4f2b4cfbada2f4f801afc4e9ee8695037c7c444f8727baba",
            "0x959e788624c759f92601c247b65608e0144bee9ab1226ac97f6057275c18c873",
            "0x331d25b27126ce542f41ea8ffb9ff737ebb08fc7443f6381145d41f4e0912979",
            "0x7c1b56c1a27e9161ab10a402d0455477c136621209619661209f9a82bbcd8760",
            "0xdf6ee05cf64f6ae4e61115d28507165616fd9662f88f822ee6242712fd686611",
            "0xc0176f1f479c52c8b8ab7a6cc87dbd1b4797001773e47f723439deb24d07cf42",
            "0xce70a1953d1b19885e6856bdcda2a3c8d1b0023259c59c942727515aef0dc0a3",
            "0xa80836d8571e14441316da79560182ac4e2b60f81d2a98e9d40466b9053b2ca4",
            "0x0c1c81f3b3804aff08498e5823d17c5c8e02f3cee08a4f3a73ff44d48f01491c",
            "0x8ace511955dd5ceb52428ff01ed8d3c4269fdc4c319cb670c195c71b2d3d7294",
            "0x7fb8609ddb51be8fc82d86c6f90d43a2b95297f8a478da80c73c7c7eb19363fa",
            "0xcc789ba9ab8ee91e0ba80de0b12732424a2c8f62acb652893aecb9f77abdc997",
            "0x8410ee9bab06e15dabf04dcd2733b4f224318ed562a1722ca407bb8008b563cf",
            "0x29838e85b792c01b2a667aeff2f5a2c45a6a37f41d17f67b261c9d12f3f2957d",
            "0xc94d87d6ef1c3ba3fe6a9c6e5cd60bddce49facbc273b2f7fab911bb5eab0913",
            "0xb7b4f4379e03406db8a20c9258bb0c101ab42df0fc132bffb26dddd3bf0c4919",
            "0x55fc9bfbe43cbb1a142cc734143b55cb5c79fc8fd51bb60b3c746975354c607f",
            "0x3d39366d81652a3879b2c7d93c46d1dbbdd1edce6eb7ac93938c0e94f27bd9fe"
          ],
          "cur_hash": "0xb47c230bb4af40ed689250c70f04befa0727293fbe16ac110b52563d7902021c"
        },
        "withdrawals": []
      },
      "checkpoint_state_trie_root": "0xe4893d39f965ab3949931efd32d62be1f21e1949afd2053f55bdd899ae42ab74"
    }
  }
]