{"block_trace":{"trie_pre_images":{"combined":{"compact":"0x0103e7fdca2deb64357414e9a9ed56748597e03dcbdd68f3b683f04e51cd54c797af0304a2b8552034441c5d0c73e7609a540493b5057b415cd24874fc61d9132e465903dc235715133a863342ba8e15cc042283301675b25a46a697d6740b50f66914d505582003d2dbe83a6ba7fd75737c8d7453d984e7938ba7ae113d3da2ad7433061157b0084101055820039c0a91ba30d346a55890b1b07287d8aae35baa8c4068ef8f1de66084aca750084101055820032dee2834b372effea65d7c74ab9f3ac60ef271e846721aa8759a346a3b55400c18984c033b2e3c9e6308898c95fd430219020303d2e57f615a47508c6e60935353428b9fc1cc75677a3eb8f5f73d61dd0aaff5f503b00a7f9a38fbafafd99d61d129293ff499b1e2dc7a7413fa64ff639ffbcead8a03bb5c466650f769a8b5c0904d56e7acdf3b7c65765ced18d44c576530476e9ff603dbafcde14bc11f2a873c97f6242c1fc2b761e946215f4411115bead1c06e98ed03d95e65106b891508bff68a9334a0b02b3afb347a4b53f1cc558cf9d00c7a6c4a035c9967a6c4ac2ccf345398c4d2034179ffd2056d1347a4b1e00d36c4a71811b203db913528a1ccbc4403ae18eb823863b107a1c01c008f0ebccbd896e03c5f979205582003a2bf3e2d04f3aa1ad9421260ec03276019e5f759fd6dc0a5685dc4df1a192007011bffffffffffffffff0458613373fffffffffffffffffffffffffffffffffffffffe14604d57602036146024575f5ffd5b5f35801560495762001fff810690815414603c575f5ffd5b62001fff01545f5260205ff35b5f5ffd5b62001fff42064281555f359062001fff01550003421266cfc89b6e76b50836a26f8348b08164db8615dfc36d40c40c783b3390840317f623abb6e2a62ed820f6979893e7de38e07d7342a080f9907d1376716c039b038cf2d6fe165b7bd0aaf3af84797fbea3d3d4b39bc974f11697fcd419e1d1ab8600582002b50914aef87454935fef5817302f46fcd9fde3620c36587ed23174a240da6e58206ac15bbcacd5de20be18b170c5cb5740c4d54b2d70c5be518e1fb3bc5edb7fc7005820024c4f6de3ef2b7750c708d76ec5c37ab6de8a21d4f6d247329c58ce48c9799e4466553847005820029ad186befbf2520478bb321301e9666d2875a807fd9fadb71311ba28266f4958202152e1798e90f1c38fc6b539c47f680bbf04e51ac63c130eea20d2a105063c7800582002611fde256cde0c34506408724e5d9fcd2046104ae60dd1857598a87cd40f9f446655380b00582002a63d96d49db5db55117715496196130aadf7cf648ebc108333ad18328524ca582087c4b36aae6d8dd0e3c7787dc7b7e2d007ad29499b78e4446523c48bb7170e99035d79b0bcb3f949cf7da5aac20215df6c7dca8500226ffbe5213d997b25d6e4da0058200259b3d9d12a059997d5751b6dd52c2106d340b6a714b8c4b0d53dd4ca767a3a58205889417a5550e68980627e535e9fb68068a711c23a4336d46e3042029e4f0ba80219856903bfbb6275cd59ab8a3e63fa9321952b4ca3ace744f3daa96686e2152b38bb0770031155166968c2c3eb94de53666552d97c3a7e336338b50cec88d90f2e85a66aff00582002d542e01a89eac61be468502f85af1be0892e191b1699e0a5feba2736560675582059d24fb3ee7d0879a8f39694be2d6b01f36a07f6743f413a00a0cb605d504e7e03904b5f3d5977fa38599760146373c3226196d7e800fa81724532da489409adab005820027e8099ced183a68f06940a7b2585ea834b2428cfff297dfb4856ff76d86d5d582004e8bfe4920a05da27b5beb8699a86bcbc0e143733389a10e9e9aed09ed6ee0c005820025bcfec21978bc0df8f08aff23eda7eb8f3ec8f5eb773f1cab2765d5ba2102b5820f730d1b557f1e34e946acbf770645e5ad46c85795b95c3fbecd4fc43052980a7005820020e950227beeb8062e9e7ea56e2d9688ce16d56cd0380d973b0c4252cc7c98458201b6b168093636ad236eff4c3df2bfa14074651d058e36755b4b6a5dd0e55028f03eee922a919f84e7413a5eac0c5fe87bc4bb89b0c81103a6545e9f126770bea4d0219272103e9a3aa82139e906d6a2183ed2bf65156cc01cfcb437ead9b3c60c12a5952a2ff03ea2ce16f6395e466a2ec8566bdc26b227e6950df36512eee3f21d2caa092463703e78c998e867c6fdec7bb22dfcb0e5e2809c522b199c293683925b5d1ff03978c0350bb839f01d77b706acbd3c411ee305c1d178b43f6a5b0c4601ca91bc305b69a034460924c04d8a371a829a64da667e4f698a3fb311e63f9e13441fd6d52108ae00370611d980957852fe851a19e4b251c995926e34981d50a12310d7e825c764566034bc9f95b83c0e1931b18e8d7184af88afd059da59be12b465458f59555cd578203ecae0d28cde0d43a1a0cd77172cee2e537b16729cea3c3f775554d208cb142270372497ed0ad07fbf46e7a96cee22f7a23d0edbb91d62c3c301571e774bad5f3970219ffff0558200365eaa92c6bc4c13a5ec45527f0c18ea8932588728769ec7aecfe6d9f32e420070118610219200105582002401b4e97e67c4a6d8095979b4c1ecb9eaf5726fc8a12798975a7653e98087208410105582002c8bb92227ba91a2657f29c5498f5c5b07ae36369c8d9283444f477930c79be0841010391d9c76bfbc066e84f0b415c737ab8c477498701d920526db41690050cfade9905582002a5ac70a18399817ccbe8bd4d9c78115136cc61699d51af87608af520226c32084101055820029bd268aedc8dbb36db0a4664e17b83abcfd87e404901eee7bd5704a95064ee08410103f89018eb65b7c812bf44c9bbb2424b5b28ff02992429396563c98e1af64ee06403d9240a9d2d5851d05a97ff3305334dfdb0101e1e321fc279d2bb3cad6afa8fc802197ffd0366349db95d3b83b332bf9d58a7856e6697554a3d5121d8f65cfff9b0dd7d543c032645f9ea0963c32d185e34faacc5914974933def24e80a7f5bae3749df02205403b2c2ebdd6e444ea68aa2e42828ac5432c778b733b1b553bf9cf33666bf11111903a0cb3efb2bbe8c5494837d9ea7f9fd73d60386f1845e3d49399d5acccfa091a803c19c4af64a5daa447c85ac8ddb3300e4a985e24fac2a8cb474eaea0d7fe65a8d03a5d1fe085488293c881ff1ef66ce5613f569e6edc986e184c6e8a3965853eabb03374ff5477cb7ec166255a7793fecac5d892c8d9f399e262e48220d5a5c079c4303a6fd4ac7b14fe0a249c93c4887555ef45f17da10bf059a44086842e60e7a6f5c0363c4ceba9346f49f3aeafd3bffeae818ad59ca5fb5409391d8752ef6df0f640d031ae5af7ca7ed894b51d0a6cb450a5d2be00d5d8b1757cd3482caba111b0a0fc4037ed6c6e97a76dd0681cee541bd35006d877ba2f1a391e7052f4106aae89e57cb035740575999fde2ddd421a9f5907dfc4be5fc3f5f96d65240ae3b3b596d38465f035c9967a6c4ac2ccf345398c4d2034179ffd2056d1347a4b1e00d36c4a71811b203db913528a1ccbc4403ae18eb823863b107a1c01c008f0ebccbd896e03c5f979205582002d6be2f2745c5cf14517978a961eff22e1682cfba091d05db7a36b918132aad07011bffffffffffffffff03d672c04edf29c2c664f21036c189ed091e4b41b39eef52864c1846dce5da2d6d0605582002fb807ae46b11103d9f55d420d3c13848de925b1c5a16026925b1c2699da44c07011bffffffffffffffff05582002b693085beb21b0878c7e5fab7519ce0d6105354cf6744dbfb73e3745e929e4084101039cfa54b9db8a4b61e45026a95f7d5c21fe9b7eeec9ff0cd81133aff4a8c93de203a1faf558971dd3a7a7774c2d5443c4acfb7252d6ae30d98786ca92a942a6556d035f4ca08c32e4a3997d0e94d8946e3d361ec5d0225d9cd85c6de8d572bb0a99c903faecf459527318d12fee2db8d85c54fc244d0207ba336a01e397593b801ae61f055820039bbcf08818ec3329e5769dff3fbdad66e6312a961acb32c1b203edf70aeba0084101031c13664b9096979e0a6a58919940b248687992af952308581eff9d0e8c14119a021940080367ea8267a3df72241a0232bf6fb97f5815b5ec9d4489062e5f2e4a90a66c33df055820026a58207750197f48cb90864096850259845c2c8e90c74433325c0b144bf8bb08410105582002fa0eae268038cfa984647a1d0635beb86eda9fb7b500688f3189520cfa9ee50841010219fb790219ffff"}},"txn_info":[{"traces":{"0x8943545177806ed17b9f23f0a21ee5948ecaa776":{"balance":"0x33b2e3c9e63084de2b1f803","nonce":"0x99"}},"meta":{"byte_code":"0xf88a8198843c6a0ead8254de948943545177806ed17b9f23f0a21ee5948ecaa77680a3646174613a2c7b226d7367223a2246696e697368656420636f6d6d6f6e202d2031227d8360306ca08cd8382f6022126dca0b3b4926f7277b366d94194b83ec32cc994a6043239a15a07b96bdbd4bf51a21c57a4b536f52a4fbcc9799d08c94cee264a49f069416c6d7","new_txn_trie_node_byte":"0xf88a8198843c6a0ead8254de948943545177806ed17b9f23f0a21ee5948ecaa77680a3646174613a2c7b226d7367223a2246696e697368656420636f6d6d6f6e202d2031227d8360306ca08cd8382f6022126dca0b3b4926f7277b366d94194b83ec32cc994a6043239a15a07b96bdbd4bf51a21c57a4b536f52a4fbcc9799d08c94cee264a49f069416c6d7","new_receipt_trie_node_byte":"0xf9010801825438b9010000000000000000000000000000000000000000000000000000000000000000000000000000000000000000000000000000000000000000000000000000000000000000000000000000000000000000000000000000000000000000000000000000000000000000000000000000000000000000000000000000000000000000000000000000000000000000000000000000000000000000000000000000000000000000000000000000000000000000000000000000000000000000000000000000000000000000000000000000000000000000000000000000000000000000000000000000000000000000000000000000000000000000000000000000000000c0","gas_used":21560}}]},"other_data":{"b_data":{"b_meta":{"block_beneficiary":"0x8943545177806ed17b9f23f0a21ee5948ecaa776","block_timestamp":"0x6655392b","block_number":"0x3e","block_difficulty":"0x0","block_random":"0x8fcf4318e70fe225ea588e3f49ef5342f649431e3c7bfd0b648ccdcb2c8720ac","block_gaslimit":"0x1954445","block_chain_id":"0x301824","block_base_fee":"0xb55c18","block_gas_used":"0x5438","block_blob_gas_used":"0x0","block_excess_blob_gas":"0x0","parent_beacon_block_root":"0xf983169ecca2329cb990fcf8335a184bc5c285be51abf689bdf7940cdf624011","block_bloom":["0x0","0x0","0x0","0x0","0x0","0x0","0x0","0x0"]},"b_hashes":{"prev_hashes":["0x0000000000000000000000000000000000000000000000000000000000000000","0x0000000000000000000000000000000000000000000000000000000000000000","0x0000000000000000000000000000000000000000000000000000000000000000","0x0000000000000000000000000000000000000000000000000000000000000000","0x0000000000000000000000000000000000000000000000000000000000000000","0x0000000000000000000000000000000000000000000000000000000000000000","0x0000000000000000000000000000000000000000000000000000000000000000","0x0000000000000000000000000000000000000000000000000000000000000000","0x0000000000000000000000000000000000000000000000000000000000000000","0x0000000000000000000000000000000000000000000000000000000000000000","0x0000000000000000000000000000000000000000000000000000000000000000","0x0000000000000000000000000000000000000000000000000000000000000000","0x0000000000000000000000000000000000000000000000000000000000000000","0x0000000000000000000000000000000000000000000000000000000000000000","0x0000000000000000000000000000000000000000000000000000000000000000","0x0000000000000000000000000000000000000000000000000000000000000000","0x0000000000000000000000000000000000000000000000000000000000000000","0x0000000000000000000000000000000000000000000000000000000000000000","0x0000000000000000000000000000000000000000000000000000000000000000","0x0000000000000000000000000000000000000000000000000000000000000000","0x0000000000000000000000000000000000000000000000000000000000000000","0x0000000000000000000000000000000000000000000000000000000000000000","0x0000000000000000000000000000000000000000000000000000000000000000","0x0000000000000000000000000000000000000000000000000000000000000000","0x0000000000000000000000000000000000000000000000000000000000000000","0x0000000000000000000000000000000000000000000000000000000000000000","0x0000000000000000000000000000000000000000000000000000000000000000","0x0000000000000000000000000000000000000000000000000000000000000000","0x0000000000000000000000000000000000000000000000000000000000000000","0x0000000000000000000000000000000000000000000000000000000000000000","0x0000000000000000000000000000000000000000000000000000000000000000","0x0000000000000000000000000000000000000000000000000000000000000000","0x0000000000000000000000000000000000000000000000000000000000000000","0x0000000000000000000000000000000000000000000000000000000000000000","0x0000000000000000000000000000000000000000000000000000000000000000","0x0000000000000000000000000000000000000000000000000000000000000000","0x0000000000000000000000000000000000000000000000000000000000000000","0x0000000000000000000000000000000000000000000000000000000000000000","0x0000000000000000000000000000000000000000000000000000000000000000","0x0000000000000000000000000000000000000000000000000000000000000000","0x0000000000000000000000000000000000000000000000000000000000000000","0x0000000000000000000000000000000000000000000000000000000000000000","0x0000000000000000000000000000000000000000000000000000000000000000","0x0000000000000000000000000000000000000000000000000000000000000000","0x0000000000000000000000000000000000000000000000000000000000000000","0x0000000000000000000000000000000000000000000000000000000000000000","0x0000000000000000000000000000000000000000000000000000000000000000","0x0000000000000000000000000000000000000000000000000000000000000000","0x0000000000000000000000000000000000000000000000000000000000000000","0x0000000000000000000000000000000000000000000000000000000000000000","0x0000000000000000000000000000000000000000000000000000000000000000","0x0000000000000000000000000000000000000000000000000000000000000000","0x0000000000000000000000000000000000000000000000000000000000000000","0x0000000000000000000000000000000000000000000000000000000000000000","0x0000000000000000000000000000000000000000000000000000000000000000","0x0000000000000000000000000000000000000000000000000000000000000000","0x0000000000000000000000000000000000000000000000000000000000000000","0x0000000000000000000000000000000000000000000000000000000000000000","0x0000000000000000000000000000000000000000000000000000000000000000","0x0000000000000000000000000000000000000000000000000000000000000000","0x0000000000000000000000000000000000000000000000000000000000000000","0x0000000000000000000000000000000000000000000000000000000000000000","0x0000000000000000000000000000000000000000000000000000000000000000","0x0000000000000000000000000000000000000000000000000000000000000000","0x0000000000000000000000000000000000000000000000000000000000000000","0x0000000000000000000000000000000000000000000000000000000000000000","0x0000000000000000000000000000000000000000000000000000000000000000","0x0000000000000000000000000000000000000000000000000000000000000000","0x0000000000000000000000000000000000000000000000000000000000000000","0x0000000000000000000000000000000000000000000000000000000000000000","0x0000000000000000000000000000000000000000000000000000000000000000","0x0000000000000000000000000000000000000000000000000000000000000000","0x0000000000000000000000000000000000000000000000000000000000000000","0x0000000000000000000000000000000000000000000000000000000000000000","0x0000000000000000000000000000000000000000000000000000000000000000","0x0000000000000000000000000000000000000000000000000000000000000000","0x0000000000000000000000000000000000000000000000000000000000000000","0x0000000000000000000000000000000000000000000000000000000000000000","0x0000000000000000000000000000000000000000000000000000000000000000","0x0000000000000000000000000000000000000000000000000000000000000000","0x0000000000000000000000000000000000000000000000000000000000000000","0x0000000000000000000000000000000000000000000000000000000000000000","0x0000000000000000000000000000000000000000000000000000000000000000","0x0000000000000000000000000000000000000000000000000000000000000000","0x0000000000000000000000000000000000000000000000000000000000000000","0x0000000000000000000000000000000000000000000000000000000000000000","0x0000000000000000000000000000000000000000000000000000000000000000","0x0000000000000000000000000000000000000000000000000000000000000000","0x0000000000000000000000000000000000000000000000000000000000000000","0x0000000000000000000000000000000000000000000000000000000000000000","0x0000000000000000000000000000000000000000000000000000000000000000","0x0000000000000000000000000000000000000000000000000000000000000000","0x0000000000000000000000000000000000000000000000000000000000000000","0x0000000000000000000000000000000000000000000000000000000000000000","0x0000000000000000000000000000000000000000000000000000000000000000","0x0000000000000000000000000000000000000000000000000000000000000000","0x0000000000000000000000000000000000000000000000000000000000000000","0x0000000000000000000000000000000000000000000000000000000000000000","0x0000000000000000000000000000000000000000000000000000000000000000","0x0000000000000000000000000000000000000000000000000000000000000000","0x0000000000000000000000000000000000000000000000000000000000000000","0x0000000000000000000000000000000000000000000000000000000000000000","0x0000000000000000000000000000000000000000000000000000000000000000","0x0000000000000000000000000000000000000000000000000000000000000000","0x0000000000000000000000000000000000000000000000000000000000000000","0x0000000000000000000000000000000000000000000000000000000000000000","0x0000000000000000000000000000000000000000000000000000000000000000","0x0000000000000000000000000000000000000000000000000000000000000000","0x0000000000000000000000000000000000000000000000000000000000000000","0x0000000000000000000000000000000000000000000000000000000000000000","0x0000000000000000000000000000000000000000000000000000000000000000","0x0000000000000000000000000000000000000000000000000000000000000000","0x0000000000000000000000000000000000000000000000000000000000000000","0x0000000000000000000000000000000000000000000000000000000000000000","0x0000000000000000000000000000000000000000000000000000000000000000","0x0000000000000000000000000000000000000000000000000000000000000000","0x0000000000000000000000000000000000000000000000000000000000000000","0x0000000000000000000000000000000000000000000000000000000000000000","0x0000000000000000000000000000000000000000000000000000000000000000","0x0000000000000000000000000000000000000000000000000000000000000000","0x0000000000000000000000000000000000000000000000000000000000000000","0x0000000000000000000000000000000000000000000000000000000000000000","0x0000000000000000000000000000000000000000000000000000000000000000","0x0000000000000000000000000000000000000000000000000000000000000000","0x0000000000000000000000000000000000000000000000000000000000000000","0x0000000000000000000000000000000000000000000000000000000000000000","0x0000000000000000000000000000000000000000000000000000000000000000","0x0000000000000000000000000000000000000000000000000000000000000000","0x0000000000000000000000000000000000000000000000000000000000000000","0x0000000000000000000000000000000000000000000000000000000000000000","0x0000000000000000000000000000000000000000000000000000000000000000","0x0000000000000000000000000000000000000000000000000000000000000000","0x0000000000000000000000000000000000000000000000000000000000000000","0x0000000000000000000000000000000000000000000000000000000000000000","0x0000000000000000000000000000000000000000000000000000000000000000","0x0000000000000000000000000000000000000000000000000000000000000000","0x0000000000000000000000000000000000000000000000000000000000000000","0x0000000000000000000000000000000000000000000000000000000000000000","0x0000000000000000000000000000000000000000000000000000000000000000","0x0000000000000000000000000000000000000000000000000000000000000000","0x0000000000000000000000000000000000000000000000000000000000000000","0x0000000000000000000000000000000000000000000000000000000000000000","0x0000000000000000000000000000000000000000000000000000000000000000","0x0000000000000000000000000000000000000000000000000000000000000000","0x0000000000000000000000000000000000000000000000000000000000000000","0x0000000000000000000000000000000000000000000000000000000000000000","0x0000000000000000000000000000000000000000000000000000000000000000","0x0000000000000000000000000000000000000000000000000000000000000000","0x0000000000000000000000000000000000000000000000000000000000000000","0x0000000000000000000000000000000000000000000000000000000000000000","0x0000000000000000000000000000000000000000000000000000000000000000","0x0000000000000000000000000000000000000000000000000000000000000000","0x0000000000000000000000000000000000000000000000000000000000000000","0x0000000000000000000000000000000000000000000000000000000000000000","0x0000000000000000000000000000000000000000000000000000000000000000","0x0000000000000000000000000000000000000000000000000000000000000000","0x0000000000000000000000000000000000000000000000000000000000000000","0x0000000000000000000000000000000000000000000000000000000000000000","0x0000000000000000000000000000000000000000000000000000000000000000","0x0000000000000000000000000000000000000000000000000000000000000000","0x0000000000000000000000000000000000000000000000000000000000000000","0x0000000000000000000000000000000000000000000000000000000000000000","0x0000000000000000000000000000000000000000000000000000000000000000","0x0000000000000000000000000000000000000000000000000000000000000000","0x0000000000000000000000000000000000000000000000000000000000000000","0x0000000000000000000000000000000000000000000000000000000000000000","0x0000000000000000000000000000000000000000000000000000000000000000","0x0000000000000000000000000000000000000000000000000000000000000000","0x0000000000000000000000000000000000000000000000000000000000000000","0x0000000000000000000000000000000000000000000000000000000000000000","0x0000000000000000000000000000000000000000000000000000000000000000","0x0000000000000000000000000000000000000000000000000000000000000000","0x0000000000000000000000000000000000000000000000000000000000000000","0x0000000000000000000000000000000000000000000000000000000000000000","0x0000000000000000000000000000000000000000000000000000000000000000","0x0000000000000000000000000000000000000000000000000000000000000000","0x0000000000000000000000000000000000000000000000000000000000000000","0x0000000000000000000000000000000000000000000000000000000000000000","0x0000000000000000000000000000000000000000000000000000000000000000","0x0000000000000000000000000000000000000000000000000000000000000000","0x0000000000000000000000000000000000000000000000000000000000000000","0x0000000000000000000000000000000000000000000000000000000000000000","0x0000000000000000000000000000000000000000000000000000000000000000","0x0000000000000000000000000000000000000000000000000000000000000000","0x0000000000000000000000000000000000000000000000000000000000000000","0x0000000000000000000000000000000000000000000000000000000000000000","0x0000000000000000000000000000000000000000000000000000000000000000","0x0000000000000000000000000000000000000000000000000000000000000000","0x0000000000000000000000000000000000000000000000000000000000000000","0x0000000000000000000000000000000000000000000000000000000000000000","0x0000000000000000000000000000000000000000000000000000000000000000","0x0000000000000000000000000000000000000000000000000000000000000000","0x0000000000000000000000000000000000000000000000000000000000000000","0x0000000000000000000000000000000000000000000000000000000000000000","0xbd491c81fa88681710feabc6b0502b779985169c92af323fffd790752961145f","0xd009e8d31d1f79c2e09bc9d0eb97d0802f0b0b0421d8299a01e43f7d61e1619d","0x7ee1f9d1d3f5a50d5c766847ffa644493f7dfe40c15eca0842fffc9966d56fae","0xaeb0a1814c75f5a92d4eccf2b57aff945682dd682c9aa35721af4f5d837af1cf","0xede379e8b2d9fecba28ac5a82da2f8c981edc9b5820e6ff4dd4816cf1aea3a69","0xc21c5ebbc8a026a4256cb0dd606673ab7ce1bb8116659989e29e2602439763c2","0xcba4dcaabefe20b444d9d5bbad6bbdb62d3e5567ace3f2a8bc7ef50b866d8424","0x37aabfe9657b21eb4a552427d79709d60ed5d783ec7e06fe816b36cab019c720","0xb1f525b09295fa86a63d92bb909082cafe48c7d3b9ddd465c7e2a3e2396572bd","0xea8b72346ce92d3b4f71064711726dbd4ead69c84742e333d1d407f69b931384","0xfb9fa09e2c384b17f28f1941f84af7d4fd790ee8b5a46b083c959e8d2e8dfcce","0x35249e8584edf2b3f40d8522cbff88fe74b1cb9883f4ff0d5c9fdb5bcdd455ff","0x3a9fce2aba6be40411df09834e261131740e2593e24c66bc25ad06415c7d3dc6","0x443a4751219a276ef5899497bff1a567bb45d638262dd39f9586f54a8ce0c2c3","0x2e8151f3846996fc1e6bfa876512df665d21ff560d613095c22e5d6da0ab6fd9","0x3f7173fa95b4b5572d4a6b39974c2c3b391e7e37cc8b8e5aa6698cfec11b9f9f","0x829777d907854b23d3326760c3a7b27352158d88bd0e0d99d5ebd556d96cac86","0x2d881795dee536ac02fda04fc4448ff80ed486c27be9e3aaaa1a93a9cb1eee43","0xc7db0cc3102f824f3af56fa65c8bde39245718429a2212f1aa4c440677ca12f3","0x3e590eb58c4e97ff90f7d2ec3b676a05b3304eb8fca463287731c748efbc47d1","0x6779a561d8d9f73ddf92e8f6f104f012ad83c1c7e17968add52521eea7cd8d8f","0xb6b85f5b0315bef22be90cae155d17d2698f5de61ed5ec09ab6f17a79f7f1480","0x9c74c424480ecd64f51651f6a3805f6eb0b59f49543e84b342970df85b685e9e","0xb18fc9785a92e61ae67fe952bde3543bde5d56f56dee86df99d87ca4b05a423f","0x22327fa2ba1b0e30f1dbc9da9f8eebd3c9828f451d76754312e5c954e3da2a59","0x2b58ae55a25b8ebca50654a830baa39d1b99ed5fbaafdfcc68db079d60f1635d","0x3a7362d2a250b425a5e929a4994b747053d80cde7e5e4598400f34c6201bb882","0xab6b2a419ab27289b2f58a8d3c14cb1e8468de9c9701d214fd3b862557304693","0x75f65c8373b541f83b8c73bd3622af91466f4f066183532b34fc08eef452342d","0x7ff5a93e6984005b653061dc57cfdff64de4e1f37164371d338e69fa276b856d","0xab695ceafb8875fb34b5fc6ad8b550cf03259917059cbad87ba39a0a88f1d027","0xee33e6ad5dfef757cc7c947a3db2ad186b9ad54785c6731dd75b18499f82d3e7","0xd45e545cabe7d8b30361119f9cee5e32f985ad6cb8944a45ed1eb2aac4bfe275","0x6377c2002e9a43aed754926d6d226563b9ab12580ca53d4f0767788ac3789b5e","0x84a628bbf3e5a03724bc206e9fce5749eb9f4493bbe0fc65c238699ca6d3f10e","0xc9641b28b0f5c26e65409d8278a0eaab403aef327b5b090cdab82f2e1bc8e79b","0x5885a8ab3724f7081703df9e4a20171865304ef09f4749825968d4652002cea2","0x7666b49368b89be22655d99d5d09740b27dababd5da25670e001ded1bcfeb2f9","0xb58eb1ace7304dfb44eb4c0ea926eefc5aab2a665aaff7a72d811860de5f3b8e","0x1fd9ff0457dc8feb09a459b876c83e0f7d6cefc801fa35922daa5edabb2109a0","0x8adf17413fe39c76a8194052d48a8cdf580585d45a4282bb82d3cc617223356b","0xdd3c4299c5b08331219f088605fffe846189f29ab569875e9b22515d37ef5f72","0xde871cf3c10fbf38da1c07695076ef89ce71b6b2a98271938d5b260b4c4805b7","0x9f17e6fe649315e276bdd70abadadc01a8bf85dd3ef6a048046901b6d9431fe9","0x9bfa7b8e6ee1e77e3e2aef3da02419cea04a01ecce5d8c6834e135e8e5c36609","0xe76bea18c3a63ffba82cd1a009d9abeda7717e9f0b083a70d24f406fdbf91af4","0x030aa6ebd2da199e4e6196f16d80626e40bff2ee629459d78a02c81d3adeda0c","0x8f3e753b9721d77ca46d3897d74289f4719d46433afd66a4470fab4f6cd23a82","0x8ebad34b1b49cf2c34f9ed4f04c32ff59324ca9be73667961bcfa316ae555644","0xbb9a7a9b3da664f6ca9308b523648295e6eed1c61446709f79cec07b958fd554","0x7e2be777178967c21203cb4cc3ca0faf25fec38b93caff4ca61346ec9267ae7b","0x86f29c65aeb5962b3260fc84e8b0e1a628e3762f6c088a1fcf42041ea330e1ae","0x746949547b3ae970b80f60a2a2e44d3caabdcb58ceaf8ce5ec327f328ba1bd2d","0x199e784c76dd0c30e7bdd107fa02522f461fe95a5c0e8a43c3c9ee4487df1c25","0xc8ce2f6802b34864f09529fb18cc990ec2819a1430521d5706ddae57770216e9","0xc97cde0aac364b359bb4ec3f314b3e27d852447d1a1f21046545a39a736c5ca6","0x62b59936646c1878cca53fea4faeb44cd3b3c20f858ce73b4d008d629ba6dda3","0x8df4ba9d542e79819c4380792ee233e19496d113b7dc5d6d54e381063753be3e","0xd1e5922bd4d3858aff2ebfea1666b719b381744013bff6d47af3137e48091635","0x9f3a42eac8854936f268dd978f936eefdc5a1d26d58a84aab4630c6989032707","0xcca47b34c543349b7a8ffb6ac5efbef4b7e4a7f153470bfdc73db477a9401c37","0x380678edbcb8e43b3eb4ad456db40faca413cd39c408c6cb4bb69ec7e258b193"],"cur_hash":"0xb6e334c6e042f73f6c0d9c2da45f433c0ec027596fc3f5dc06d9c5a6a47d76a3"},"withdrawals":[]},"checkpoint_state_trie_root":"0x2dab6a1d6d638955507777aecea699e6728825524facbd446bd4e86d44fa5ecd"}}